{"abi":[{"type":"constructor","inputs":[{"name":"admin","type":"address","internalType":"address"},{"name":"baseURI_","type":"string","internalType":"string"},{"name":"treasury_","type":"address","internalType":"address payable"},{"name":"mintPriceWei_","type":"uint256","internalType":"uint256"}],"stateMutability":"nonpayable"},{"type":"function","name":"BURNER_ROLE","inputs":[],"outputs":[{"name":"","type":"bytes32","internalType":"bytes32"}],"stateMutability":"view"},{"type":"function","name":"DEFAULT_ADMIN_ROLE","inputs":[],"outputs":[{"name":"","type":"bytes32","internalType":"bytes32"}],"stateMutability":"view"},{"type":"function","name":"MINTER_ROLE","inputs":[],"outputs":[{"name":"","type":"bytes32","internalType":"bytes32"}],"stateMutability":"view"},{"type":"function","name":"approve","inputs":[{"name":"to","type":"address","internalType":"address"},{"name":"tokenId","type":"uint256","internalType":"uint256"}],"outputs":[],"stateMutability":"nonpayable"},{"type":"function","name":"balanceOf","inputs":[{"name":"owner","type":"address","internalType":"address"}],"outputs":[{"name":"","type":"uint256","internalType":"uint256"}],"stateMutability":"view"},{"type":"function","name":"burnTicket","inputs":[{"name":"tokenId","type":"uint256","internalType":"uint256"},{"name":"expectedRouteId","type":"uint256","internalType":"uint256"},{"name":"expectedHolder","type":"address","internalType":"address"}],"outputs":[],"stateMutability":"nonpayable"},{"type":"function","name":"getApproved","inputs":[{"name":"tokenId","type":"uint256","internalType":"uint256"}],"outputs":[{"name":"","type":"address","internalType":"address"}],"stateMutability":"view"},{"type":"function","name":"getRoleAdmin","inputs":[{"name":"role","type":"bytes32","internalType":"bytes32"}],"outputs":[{"name":"","type":"bytes32","internalType":"bytes32"}],"stateMutability":"view"},{"type":"function","name":"grantRole","inputs":[{"name":"role","type":"bytes32","internalType":"bytes32"},{"name":"account","type":"address","internalType":"address"}],"outputs":[],"stateMutability":"nonpayable"},{"type":"function","name":"hasRole","inputs":[{"name":"role","type":"bytes32","internalType":"bytes32"},{"name":"account","type":"address","internalType":"address"}],"outputs":[{"name":"","type":"bool","internalType":"bool"}],"stateMutability":"view"},{"type":"function","name":"isApprovedForAll","inputs":[{"name":"owner","type":"address","internalType":"address"},{"name":"operator","type":"address","internalType":"address"}],"outputs":[{"name":"","type":"bool","internalType":"bool"}],"stateMutability":"view"},{"type":"function","name":"mint","inputs":[{"name":"to","type":"address","internalType":"address"},{"name":"routeId","type":"uint256","internalType":"uint256"},{"name":"validUntilEpoch","type":"uint64","internalType":"uint64"},{"name":"operatorAddr","type":"address","internalType":"address"}],"outputs":[{"name":"tokenId","type":"uint256","internalType":"uint256"}],"stateMutability":"nonpayable"},{"type":"function","name":"mintPriceWei","inputs":[],"outputs":[{"name":"","type":"uint256","internalType":"uint256"}],"stateMutability":"view"},{"type":"function","name":"name","inputs":[],"outputs":[{"name":"","type":"string","internalType":"string"}],"stateMutability":"view"},{"type":"function","name":"operatorOf","inputs":[{"name":"tokenId","type":"uint256","internalType":"uint256"}],"outputs":[{"name":"","type":"address","internalType":"address"}],"stateMutability":"view"},{"type":"function","name":"ownerOf","inputs":[{"name":"tokenId","type":"uint256","internalType":"uint256"}],"outputs":[{"name":"","type":"address","internalType":"address"}],"stateMutability":"view"},{"type":"function","name":"purchaseTicket","inputs":[{"name":"routeId","type":"uint256","internalType":"uint256"},{"name":"validUntilEpoch","type":"uint64","internalType":"uint64"},{"name":"operatorAddr","type":"address","internalType":"address"}],"outputs":[{"name":"tokenId","type":"uint256","internalType":"uint256"}],"stateMutability":"payable"},{"type":"function","name":"renounceRole","inputs":[{"name":"role","type":"bytes32","internalType":"bytes32"},{"name":"callerConfirmation","type":"address","internalType":"address"}],"outputs":[],"stateMutability":"nonpayable"},{"type":"function","name":"revokeRole","inputs":[{"name":"role","type":"bytes32","internalType":"bytes32"},{"name":"account","type":"address","internalType":"address"}],"outputs":[],"stateMutability":"nonpayable"},{"type":"function","name":"routeMintPriceWei","inputs":[{"name":"routeId","type":"uint256","internalType":"uint256"}],"outputs":[{"name":"","type":"uint256","internalType":"uint256"}],"stateMutability":"view"},{"type":"function","name":"routeOf","inputs":[{"name":"tokenId","type":"uint256","internalType":"uint256"}],"outputs":[{"name":"","type":"uint256","internalType":"uint256"}],"stateMutability":"view"},{"type":"function","name":"safeTransferFrom","inputs":[{"name":"from","type":"address","internalType":"address"},{"name":"to","type":"address","internalType":"address"},{"name":"tokenId","type":"uint256","internalType":"uint256"}],"outputs":[],"stateMutability":"nonpayable"},{"type":"function","name":"safeTransferFrom","inputs":[{"name":"from","type":"address","internalType":"address"},{"name":"to","type":"address","internalType":"address"},{"name":"tokenId","type":"uint256","internalType":"uint256"},{"name":"data","type":"bytes","internalType":"bytes"}],"outputs":[],"stateMutability":"nonpayable"},{"type":"function","name":"setApprovalForAll","inputs":[{"name":"operator","type":"address","internalType":"address"},{"name":"approved","type":"bool","internalType":"bool"}],"outputs":[],"stateMutability":"nonpayable"},{"type":"function","name":"setBaseURI","inputs":[{"name":"baseURI_","type":"string","internalType":"string"}],"outputs":[],"stateMutability":"nonpayable"},{"type":"function","name":"setMintPriceWei","inputs":[{"name":"newPriceWei","type":"uint256","internalType":"uint256"}],"outputs":[],"stateMutability":"nonpayable"},{"type":"function","name":"setRouteMintPrice","inputs":[{"name":"routeId","type":"uint256","internalType":"uint256"},{"name":"weiAmount","type":"uint256","internalType":"uint256"}],"outputs":[],"stateMutability":"nonpayable"},{"type":"function","name":"supportsInterface","inputs":[{"name":"interfaceId","type":"bytes4","internalType":"bytes4"}],"outputs":[{"name":"","type":"bool","internalType":"bool"}],"stateMutability":"view"},{"type":"function","name":"symbol","inputs":[],"outputs":[{"name":"","type":"string","internalType":"string"}],"stateMutability":"view"},{"type":"function","name":"tokenByIndex","inputs":[{"name":"index","type":"uint256","internalType":"uint256"}],"outputs":[{"name":"","type":"uint256","internalType":"uint256"}],"stateMutability":"view"},{"type":"function","name":"tokenOfOwnerByIndex","inputs":[{"name":"owner","type":"address","internalType":"address"},{"name":"index","type":"uint256","internalType":"uint256"}],"outputs":[{"name":"","type":"uint256","internalType":"uint256"}],"stateMutability":"view"},{"type":"function","name":"tokenURI","inputs":[{"name":"tokenId","type":"uint256","internalType":"uint256"}],"outputs":[{"name":"","type":"string","internalType":"string"}],"stateMutability":"view"},{"type":"function","name":"totalBurned","inputs":[],"outputs":[{"name":"","type":"uint256","internalType":"uint256"}],"stateMutability":"view"},{"type":"function","name":"totalMinted","inputs":[],"outputs":[{"name":"","type":"uint256","internalType":"uint256"}],"stateMutability":"view"},{"type":"function","name":"totalSupply","inputs":[],"outputs":[{"name":"","type":"uint256","internalType":"uint256"}],"stateMutability":"view"},{"type":"function","name":"transferFrom","inputs":[{"name":"from","type":"address","internalType":"address"},{"name":"to","type":"address","internalType":"address"},{"name":"tokenId","type":"uint256","internalType":"uint256"}],"outputs":[],"stateMutability":"nonpayable"},{"type":"function","name":"treasury","inputs":[],"outputs":[{"name":"","type":"address","internalType":"address payable"}],"stateMutability":"view"},{"type":"function","name":"validUntil","inputs":[{"name":"tokenId","type":"uint256","internalType":"uint256"}],"outputs":[{"name":"","type":"uint64","internalType":"uint64"}],"stateMutability":"view"},{"type":"event","name":"Approval","inputs":[{"name":"owner","type":"address","indexed":true,"internalType":"address"},{"name":"approved","type":"address","indexed":true,"internalType":"address"},{"name":"tokenId","type":"uint256","indexed":true,"internalType":"uint256"}],"anonymous":false},{"type":"event","name":"ApprovalForAll","inputs":[{"name":"owner","type":"address","indexed":true,"internalType":"address"},{"name":"operator","type":"address","indexed":true,"internalType":"address"},{"name":"approved","type":"bool","indexed":false,"internalType":"bool"}],"anonymous":false},{"type":"event","name":"RoleAdminChanged","inputs":[{"name":"role","type":"bytes32","indexed":true,"internalType":"bytes32"},{"name":"previousAdminRole","type":"bytes32","indexed":true,"internalType":"bytes32"},{"name":"newAdminRole","type":"bytes32","indexed":true,"internalType":"bytes32"}],"anonymous":false},{"type":"event","name":"RoleGranted","inputs":[{"name":"role","type":"bytes32","indexed":true,"internalType":"bytes32"},{"name":"account","type":"address","indexed":true,"internalType":"address"},{"name":"sender","type":"address","indexed":true,"internalType":"address"}],"anonymous":false},{"type":"event","name":"RoleRevoked","inputs":[{"name":"role","type":"bytes32","indexed":true,"internalType":"bytes32"},{"name":"account","type":"address","indexed":true,"internalType":"address"},{"name":"sender","type":"address","indexed":true,"internalType":"address"}],"anonymous":false},{"type":"event","name":"RoutePriceSet","inputs":[{"name":"routeId","type":"uint256","indexed":true,"internalType":"uint256"},{"name":"weiAmount","type":"uint256","indexed":false,"internalType":"uint256"}],"anonymous":false},{"type":"event","name":"TicketBurned","inputs":[{"name":"from","type":"address","indexed":true,"internalType":"address"},{"name":"tokenId","type":"uint256","indexed":true,"internalType":"uint256"},{"name":"routeId","type":"uint256","indexed":false,"internalType":"uint256"}],"anonymous":false},{"type":"event","name":"TicketMinted","inputs":[{"name":"to","type":"address","indexed":true,"internalType":"address"},{"name":"tokenId","type":"uint256","indexed":true,"internalType":"uint256"},{"name":"routeId","type":"uint256","indexed":false,"internalType":"uint256"},{"name":"validUntilEpoch","type":"uint64","indexed":false,"internalType":"uint64"},{"name":"operatorAddr","type":"address","indexed":false,"internalType":"address"}],"anonymous":false},{"type":"event","name":"Transfer","inputs":[{"name":"from","type":"address","indexed":true,"internalType":"address"},{"name":"to","type":"address","indexed":true,"internalType":"address"},{"name":"tokenId","type":"uint256","indexed":true,"internalType":"uint256"}],"anonymous":false},{"type":"error","name":"AccessControlBadConfirmation","inputs":[]},{"type":"error","name":"AccessControlUnauthorizedAccount","inputs":[{"name":"account","type":"address","internalType":"address"},{"name":"neededRole","type":"bytes32","internalType":"bytes32"}]},{"type":"error","name":"ERC721EnumerableForbiddenBatchMint","inputs":[]},{"type":"error","name":"ERC721IncorrectOwner","inputs":[{"name":"sender","type":"address","internalType":"address"},{"name":"tokenId","type":"uint256","internalType":"uint256"},{"name":"owner","type":"address","internalType":"address"}]},{"type":"error","name":"ERC721InsufficientApproval","inputs":[{"name":"operator","type":"address","internalType":"address"},{"name":"tokenId","type":"uint256","internalType":"uint256"}]},{"type":"error","name":"ERC721InvalidApprover","inputs":[{"name":"approver","type":"address","internalType":"address"}]},{"type":"error","name":"ERC721InvalidOperator","inputs":[{"name":"operator","type":"address","internalType":"address"}]},{"type":"error","name":"ERC721InvalidOwner","inputs":[{"name":"owner","type":"address","internalType":"address"}]},{"type":"error","name":"ERC721InvalidReceiver","inputs":[{"name":"receiver","type":"address","internalType":"address"}]},{"type":"error","name":"ERC721InvalidSender","inputs":[{"name":"sender","type":"address","internalType":"address"}]},{"type":"error","name":"ERC721NonexistentToken","inputs":[{"name":"tokenId","type":"uint256","internalType":"uint256"}]},{"type":"error","name":"ERC721OutOfBoundsIndex","inputs":[{"name":"owner","type":"address","internalType":"address"},{"name":"index","type":"uint256","internalType":"uint256"}]},{"type":"error","name":"HolderMismatch","inputs":[{"name":"tokenId","type":"uint256","internalType":"uint256"},{"name":"expectedHolder","type":"address","internalType":"address"},{"name":"actualOwner","type":"address","internalType":"address"}]},{"type":"error","name":"InsufficientPayment","inputs":[{"name":"sent","type":"uint256","internalType":"uint256"},{"name":"required","type":"uint256","internalType":"uint256"}]},{"type":"error","name":"RouteMismatch","inputs":[{"name":"tokenId","type":"uint256","internalType":"uint256"},{"name":"expectedRouteId","type":"uint256","internalType":"uint256"},{"name":"actualRouteId","type":"uint256","internalType":"uint256"}]},{"type":"error","name":"SoulboundTransfer","inputs":[]},{"type":"error","name":"TicketExpired","inputs":[{"name":"tokenId","type":"uint256","internalType":"uint256"},{"name":"validUntilEpoch","type":"uint64","internalType":"uint64"},{"name":"nowTimestamp","type":"uint256","internalType":"uint256"}]},{"type":"error","name":"TokenIdAllocationFailed","inputs":[]},{"type":"error","name":"TreasuryTransferFailed","inputs":[]}],"bytecode":{"object":"0x60a060405234801562000010575f80fd5b506040516200266c3803806200266c8339810160408190526200003391620001c1565b6040518060400160405280601081526020016f10da185a5b94185cdcc8151a58dad95d60821b815250604051806040016040528060048152602001635041535360e01b815250815f908162000089919062000348565b50600162000098828262000348565b50620000a991505f905085620000d3565b50600d620000b8848262000348565b506001600160a01b0390911660805260105550620004149050565b5f828152600a602090815260408083206001600160a01b038516845290915281205460ff166200017a575f838152600a602090815260408083206001600160a01b03861684529091529020805460ff19166001179055620001313390565b6001600160a01b0316826001600160a01b0316847f2f8788117e7eff1d82e926ec794901d17c78024a50270940304540a733656f0d60405160405180910390a45060016200017d565b505f5b92915050565b6001600160a01b038116811462000198575f80fd5b50565b634e487b7160e01b5f52604160045260245ffd5b8051620001bc8162000183565b919050565b5f805f8060808587031215620001d5575f80fd5b8451620001e28162000183565b602086810151919550906001600160401b038082111562000201575f80fd5b818801915088601f83011262000215575f80fd5b8151818111156200022a576200022a6200019b565b604051601f8201601f19908116603f011681019083821181831017156200025557620002556200019b565b816040528281528b868487010111156200026d575f80fd5b5f93505b8284101562000290578484018601518185018701529285019262000271565b5f868483010152809850505050505050620002ae60408601620001af565b6060959095015193969295505050565b600181811c90821680620002d357607f821691505b602082108103620002f257634e487b7160e01b5f52602260045260245ffd5b50919050565b601f8211156200034357805f5260205f20601f840160051c810160208510156200031f5750805b601f840160051c820191505b8181101562000340575f81556001016200032b565b50505b505050565b81516001600160401b038111156200036457620003646200019b565b6200037c81620003758454620002be565b84620002f8565b602080601f831160018114620003b2575f84156200039a5750858301515b5f19600386901b1c1916600185901b1785556200040c565b5f85815260208120601f198616915b82811015620003e257888601518255948401946001909101908401620003c1565b50858210156200040057878501515f19600388901b60f8161c191681555b505060018460011b0185555b505050505050565b608051612238620004345f395f81816104f901526108c501526122385ff3fe60806040526004361061021d575f3560e01c806361d027b31161011e578063b88d4fde116100a8578063d547741f1161006d578063d547741f146106a3578063d89135cd146106c2578063e8fc4d58146106d7578063e985e9c514610702578063f41875e114610721575f80fd5b8063b88d4fde146105fe578063c87b56dd1461061d578063ca569d6f1461063c578063cb2c97221461065b578063d539139314610670575f80fd5b806391d14854116100ee57806391d148541461058457806395d89b41146105a3578063a217fddf146105b7578063a22cb465146105ca578063a2309ff8146105e9575f80fd5b806361d027b3146104e85780636352211e1461051b57806370a082311461053a57806374c059b814610559575f80fd5b806323b872dd116101aa57806336568abe1161016f57806336568abe1461044d5780633cf255491461046c57806342842e0e1461048b5780634f6ccce7146104aa57806355f804b3146104c9575f80fd5b806323b872dd1461038f578063248a9ca3146103ae578063282c51f3146103dc5780632f2ff15d1461040f5780632f745c591461042e575f80fd5b8063095ea7b3116101f0578063095ea7b3146102fb5780630b9f7cac1461031c5780630bacb1ca1461034957806315ebd1231461035c57806318160ddd1461037b575f80fd5b806301ffc9a714610221578063059c95d41461025557806306fdde03146102a3578063081812fc146102c4575b5f80fd5b34801561022c575f80fd5b5061024061023b366004611c11565b610755565b60405190151581526020015b60405180910390f35b348015610260575f80fd5b5061028a61026f366004611c2c565b60136020525f908152604090205467ffffffffffffffff1681565b60405167ffffffffffffffff909116815260200161024c565b3480156102ae575f80fd5b506102b7610765565b60405161024c9190611c90565b3480156102cf575f80fd5b506102e36102de366004611c2c565b6107f4565b6040516001600160a01b03909116815260200161024c565b348015610306575f80fd5b5061031a610315366004611cbd565b61081b565b005b348015610327575f80fd5b5061033b610336366004611cfc565b61082a565b60405190815260200161024c565b61033b610357366004611d46565b61086b565b348015610367575f80fd5b5061031a610376366004611c2c565b61095b565b348015610386575f80fd5b5060085461033b565b34801561039a575f80fd5b5061031a6103a9366004611d7f565b61096b565b3480156103b9575f80fd5b5061033b6103c8366004611c2c565b5f908152600a602052604090206001015490565b3480156103e7575f80fd5b5061033b7f3c11d16cbaffd01df69ce1c404f6340ee057498f5f00246190ea54220576a84881565b34801561041a575f80fd5b5061031a610429366004611db8565b6109f4565b348015610439575f80fd5b5061033b610448366004611cbd565b610a18565b348015610458575f80fd5b5061031a610467366004611db8565b610a7b565b348015610477575f80fd5b5061031a610486366004611de2565b610ab3565b348015610496575f80fd5b5061031a6104a5366004611d7f565b610b0e565b3480156104b5575f80fd5b5061033b6104c4366004611c2c565b610b28565b3480156104d4575f80fd5b5061031a6104e3366004611e89565b610b7d565b3480156104f3575f80fd5b506102e37f000000000000000000000000000000000000000000000000000000000000000081565b348015610526575f80fd5b506102e3610535366004611c2c565b610b93565b348015610545575f80fd5b5061033b610554366004611ece565b610b9d565b348015610564575f80fd5b5061033b610573366004611c2c565b60116020525f908152604090205481565b34801561058f575f80fd5b5061024061059e366004611db8565b610be2565b3480156105ae575f80fd5b506102b7610c0c565b3480156105c2575f80fd5b5061033b5f81565b3480156105d5575f80fd5b5061031a6105e4366004611ee7565b610c1b565b3480156105f4575f80fd5b5061033b600e5481565b348015610609575f80fd5b5061031a610618366004611f20565b610c26565b348015610628575f80fd5b506102b7610637366004611c2c565b610c3e565b348015610647575f80fd5b5061031a610656366004611f97565b610ca3565b348015610666575f80fd5b5061033b60105481565b34801561067b575f80fd5b5061033b7f9f2df0fed2c77648de5860a4cc508cd0818c85b8b8a1ab4ceeef8d981c8956a681565b3480156106ae575f80fd5b5061031a6106bd366004611db8565b610e53565b3480156106cd575f80fd5b5061033b600f5481565b3480156106e2575f80fd5b5061033b6106f1366004611c2c565b60126020525f908152604090205481565b34801561070d575f80fd5b5061024061071c366004611fc0565b610e77565b34801561072c575f80fd5b506102e361073b366004611c2c565b60146020525f90815260409020546001600160a01b031681565b5f61075f82610ea4565b92915050565b60605f805461077390611fe8565b80601f016020809104026020016040519081016040528092919081815260200182805461079f90611fe8565b80156107ea5780601f106107c1576101008083540402835291602001916107ea565b820191905f5260205f20905b8154815290600101906020018083116107cd57829003601f168201915b5050505050905090565b5f6107fe82610ec8565b505f828152600460205260409020546001600160a01b031661075f565b610826828233610f00565b5050565b5f7f9f2df0fed2c77648de5860a4cc508cd0818c85b8b8a1ab4ceeef8d981c8956a661085581610f0d565b61086186868686610f1a565b9695505050505050565b5f8381526011602052604081205480820361088557506010545b803410156108b45760405163b99e2ab760e01b8152346004820152602481018290526044015b60405180910390fd5b6108c033868686610f1a565b91505f7f00000000000000000000000000000000000000000000000000000000000000006001600160a01b0316346040515f6040518083038185875af1925050503d805f811461092b576040519150601f19603f3d011682016040523d82523d5f602084013e610930565b606091505b5050905080610952576040516301c6e79f60e31b815260040160405180910390fd5b50509392505050565b5f61096581610f0d565b50601055565b6001600160a01b03821661099457604051633250574960e11b81525f60048201526024016108ab565b5f6109a0838333610ff1565b9050836001600160a01b0316816001600160a01b0316146109ee576040516364283d7b60e01b81526001600160a01b03808616600483015260248201849052821660448201526064016108ab565b50505050565b5f828152600a6020526040902060010154610a0e81610f0d565b6109ee8383611051565b5f610a2283610b9d565b8210610a535760405163295f44f760e21b81526001600160a01b0384166004820152602481018390526044016108ab565b506001600160a01b03919091165f908152600660209081526040808320938352929052205490565b6001600160a01b0381163314610aa45760405163334bd91960e11b815260040160405180910390fd5b610aae82826110e2565b505050565b5f610abd81610f0d565b5f83815260116020526040908190208390555183907fcfbf3c5e0a537be54b3709eb02a70ac02696efa476d6b4b0a6313c602f183a8190610b019085815260200190565b60405180910390a2505050565b610aae83838360405180602001604052805f815250610c26565b5f610b3260085490565b8210610b5a5760405163295f44f760e21b81525f6004820152602481018390526044016108ab565b60088281548110610b6d57610b6d612020565b905f5260205f2001549050919050565b5f610b8781610f0d565b600d610aae8382612078565b5f61075f82610ec8565b5f6001600160a01b038216610bc7576040516322718ad960e21b81525f60048201526024016108ab565b506001600160a01b03165f9081526003602052604090205490565b5f918252600a602090815260408084206001600160a01b0393909316845291905290205460ff1690565b60606001805461077390611fe8565b61082633838361114d565b610c3184848461096b565b6109ee33858585856111eb565b6060610c4982610ec8565b505f610c53611313565b90505f815111610c715760405180602001604052805f815250610c9c565b80610c7b84611322565b604051602001610c8c929190612134565b6040516020818303038152906040525b9392505050565b7f3c11d16cbaffd01df69ce1c404f6340ee057498f5f00246190ea54220576a848610ccd81610f0d565b5f84815260026020908152604080832054601283528184205460139093529220546001600160a01b039092169167ffffffffffffffff1642811015610d3e57604051636809d3bd60e01b81526004810188905267ffffffffffffffff821660248201524260448201526064016108ab565b858214610d6f5760405163e4913dbb60e01b81526004810188905260248101879052604481018390526064016108ab565b846001600160a01b0316836001600160a01b031614610dba57604051627d08af60e01b8152600481018890526001600160a01b038087166024830152841660448201526064016108ab565b5f87815260126020908152604080832083905560138252808320805467ffffffffffffffff191690556014909152902080546001600160a01b0319169055610e01876113b2565b600f8054600101905560405182815287906001600160a01b038516907f6065a8850c5813614b41368663e05eb6c2244539c572b55da7b9c0ed65bf10e89060200160405180910390a350505050505050565b5f828152600a6020526040902060010154610e6d81610f0d565b6109ee83836110e2565b6001600160a01b039182165f90815260056020908152604080832093909416825291909152205460ff1690565b5f6001600160e01b03198216637965db0b60e01b148061075f575061075f826113ea565b5f818152600260205260408120546001600160a01b03168061075f57604051637e27328960e01b8152600481018490526024016108ab565b610aae838383600161140e565b610f178133611512565b50565b5f610f278585858561154b565b5f81815260126020908152604080832088905560138252808320805467ffffffffffffffff191667ffffffffffffffff89161790556014909152902080546001600160a01b0319166001600160a01b0385161790559050610f888582611651565b600e805460010190556040805185815267ffffffffffffffff851660208201526001600160a01b0384811682840152915183928816917fb01fbf2f171908c5de8817d5b997eabf006f3bad859185e60f4b1e13566f6075919081900360600190a3949350505050565b5f828152600260205260408120546001600160a01b0316801580159061101f57506001600160a01b03851615155b1561103d57604051631e953aff60e21b815260040160405180910390fd5b61104885858561166a565b95945050505050565b5f61105c8383610be2565b6110db575f838152600a602090815260408083206001600160a01b03861684529091529020805460ff191660011790556110933390565b6001600160a01b0316826001600160a01b0316847f2f8788117e7eff1d82e926ec794901d17c78024a50270940304540a733656f0d60405160405180910390a450600161075f565b505f61075f565b5f6110ed8383610be2565b156110db575f838152600a602090815260408083206001600160a01b0386168085529252808320805460ff1916905551339286917ff6391f5c32d9c69d2a47ea670b442974b53935d1edc7fd64eb21e047a839171b9190a450600161075f565b6001600160a01b03821661117f57604051630b61174360e31b81526001600160a01b03831660048201526024016108ab565b6001600160a01b038381165f81815260056020908152604080832094871680845294825291829020805460ff191686151590811790915591519182527f17307eab39ab6107e8899845ad3d59bd9653f200f220920489ca2b5937696c31910160405180910390a3505050565b6001600160a01b0383163b1561130c57604051630a85bd0160e11b81526001600160a01b0384169063150b7a029061122d908890889087908790600401612162565b6020604051808303815f875af1925050508015611267575060408051601f3d908101601f1916820190925261126491810190612194565b60015b6112ce573d808015611294576040519150601f19603f3d011682016040523d82523d5f602084013e611299565b606091505b5080515f036112c657604051633250574960e11b81526001600160a01b03851660048201526024016108ab565b805181602001fd5b6001600160e01b03198116630a85bd0160e11b1461130a57604051633250574960e11b81526001600160a01b03851660048201526024016108ab565b505b5050505050565b6060600d805461077390611fe8565b60605f61132e83611735565b60010190505f8167ffffffffffffffff81111561134d5761134d611e02565b6040519080825280601f01601f191660200182016040528015611377576020820181803683370190505b5090508181016020015b5f19016f181899199a1a9b1b9c1cb0b131b232b360811b600a86061a8153600a850494508461138157509392505050565b5f6113be5f835f610ff1565b90506001600160a01b03811661082657604051637e27328960e01b8152600481018390526024016108ab565b5f6001600160e01b0319821663780e9d6360e01b148061075f575061075f8261180c565b808061142257506001600160a01b03821615155b156114e3575f61143184610ec8565b90506001600160a01b0383161580159061145d5750826001600160a01b0316816001600160a01b031614155b8015611470575061146e8184610e77565b155b156114995760405163a9fbf51f60e01b81526001600160a01b03841660048201526024016108ab565b81156114e15783856001600160a01b0316826001600160a01b03167f8c5be1e5ebec7d5bd14f71427d1e84f3dd0314c0f7b2291e5b200ac8c7c3b92560405160405180910390a45b505b50505f90815260046020526040902080546001600160a01b0319166001600160a01b0392909216919091179055565b61151c8282610be2565b6108265760405163e2517d3f60e01b81526001600160a01b0382166004820152602481018390526044016108ab565b5f805b61010081101561162f57600b5f8154611566906121c3565b918290555060408051602081019290925246908201526bffffffffffffffffffffffff19606088811b821681840152607483018890526001600160c01b031960c088901b16609484015285811b8216609c84015233901b1660b08201524260c48201524460e482015261010481018290526101240160408051601f1981840301815291815281516020928301205f818152600c90935291205490925060ff1661162757505f818152600c60205260409020805460ff19166001179055611649565b60010161154e565b5060405163494fc5a360e11b815260040160405180910390fd5b949350505050565b610826828260405180602001604052805f81525061185b565b5f80611677858585611872565b90506001600160a01b0381166116d3576116ce84600880545f838152600960205260408120829055600182018355919091527ff3f7a9fe364faab93b216da50a3214154f22a0a2b415b23a84c8169e8b636ee30155565b6116f6565b846001600160a01b0316816001600160a01b0316146116f6576116f68185611964565b6001600160a01b0385166117125761170d846119e1565b611649565b846001600160a01b0316816001600160a01b031614611649576116498585611a88565b5f8072184f03e93ff9f4daa797ed6e38ed64bf6a1f0160401b83106117735772184f03e93ff9f4daa797ed6e38ed64bf6a1f0160401b830492506040015b6d04ee2d6d415b85acef8100000000831061179f576d04ee2d6d415b85acef8100000000830492506020015b662386f26fc1000083106117bd57662386f26fc10000830492506010015b6305f5e10083106117d5576305f5e100830492506008015b61271083106117e957612710830492506004015b606483106117fb576064830492506002015b600a831061075f5760010192915050565b5f6001600160e01b031982166380ac58cd60e01b148061183c57506001600160e01b03198216635b5e139f60e01b145b8061075f57506301ffc9a760e01b6001600160e01b031983161461075f565b6118658383611ad6565b610aae335f8585856111eb565b5f828152600260205260408120546001600160a01b039081169083161561189e5761189e818486611b37565b6001600160a01b038116156118d8576118b95f855f8061140e565b6001600160a01b0381165f90815260036020526040902080545f190190555b6001600160a01b03851615611906576001600160a01b0385165f908152600360205260409020805460010190555b5f8481526002602052604080822080546001600160a01b0319166001600160a01b0389811691821790925591518793918516917fddf252ad1be2c89b69c2b068fc378daa952ba7f163c4a11628f55a4df523b3ef91a4949350505050565b5f61196e83610b9d565b5f838152600760209081526040808320546001600160a01b03881684526006909252909120919250908183146119c3575f83815260208281526040808320548584528184208190558352600790915290208290555b5f938452600760209081526040808620869055938552525081205550565b6008545f906119f2906001906121db565b5f8381526009602052604081205460088054939450909284908110611a1957611a19612020565b905f5260205f20015490508060088381548110611a3857611a38612020565b5f918252602080832090910192909255828152600990915260408082208490558582528120556008805480611a6f57611a6f6121ee565b600190038181905f5260205f20015f9055905550505050565b5f6001611a9484610b9d565b611a9e91906121db565b6001600160a01b039093165f908152600660209081526040808320868452825280832085905593825260079052919091209190915550565b6001600160a01b038216611aff57604051633250574960e11b81525f60048201526024016108ab565b5f611b0b83835f610ff1565b90506001600160a01b03811615610aae576040516339e3563760e11b81525f60048201526024016108ab565b611b42838383611b9b565b610aae576001600160a01b038316611b7057604051637e27328960e01b8152600481018290526024016108ab565b60405163177e802f60e01b81526001600160a01b0383166004820152602481018290526044016108ab565b5f6001600160a01b038316158015906116495750826001600160a01b0316846001600160a01b03161480611bd45750611bd48484610e77565b806116495750505f908152600460205260409020546001600160a01b03908116911614919050565b6001600160e01b031981168114610f17575f80fd5b5f60208284031215611c21575f80fd5b8135610c9c81611bfc565b5f60208284031215611c3c575f80fd5b5035919050565b5f5b83811015611c5d578181015183820152602001611c45565b50505f910152565b5f8151808452611c7c816020860160208601611c43565b601f01601f19169290920160200192915050565b602081525f610c9c6020830184611c65565b80356001600160a01b0381168114611cb8575f80fd5b919050565b5f8060408385031215611cce575f80fd5b611cd783611ca2565b946020939093013593505050565b803567ffffffffffffffff81168114611cb8575f80fd5b5f805f8060808587031215611d0f575f80fd5b611d1885611ca2565b935060208501359250611d2d60408601611ce5565b9150611d3b60608601611ca2565b905092959194509250565b5f805f60608486031215611d58575f80fd5b83359250611d6860208501611ce5565b9150611d7660408501611ca2565b90509250925092565b5f805f60608486031215611d91575f80fd5b611d9a84611ca2565b9250611da860208501611ca2565b9150604084013590509250925092565b5f8060408385031215611dc9575f80fd5b82359150611dd960208401611ca2565b90509250929050565b5f8060408385031215611df3575f80fd5b50508035926020909101359150565b634e487b7160e01b5f52604160045260245ffd5b5f67ffffffffffffffff80841115611e3057611e30611e02565b604051601f8501601f19908116603f01168101908282118183101715611e5857611e58611e02565b81604052809350858152868686011115611e70575f80fd5b858560208301375f602087830101525050509392505050565b5f60208284031215611e99575f80fd5b813567ffffffffffffffff811115611eaf575f80fd5b8201601f81018413611ebf575f80fd5b61164984823560208401611e16565b5f60208284031215611ede575f80fd5b610c9c82611ca2565b5f8060408385031215611ef8575f80fd5b611f0183611ca2565b915060208301358015158114611f15575f80fd5b809150509250929050565b5f805f8060808587031215611f33575f80fd5b611f3c85611ca2565b9350611f4a60208601611ca2565b925060408501359150606085013567ffffffffffffffff811115611f6c575f80fd5b8501601f81018713611f7c575f80fd5b611f8b87823560208401611e16565b91505092959194509250565b5f805f60608486031215611fa9575f80fd5b8335925060208401359150611d7660408501611ca2565b5f8060408385031215611fd1575f80fd5b611fda83611ca2565b9150611dd960208401611ca2565b600181811c90821680611ffc57607f821691505b60208210810361201a57634e487b7160e01b5f52602260045260245ffd5b50919050565b634e487b7160e01b5f52603260045260245ffd5b601f821115610aae57805f5260205f20601f840160051c810160208510156120595750805b601f840160051c820191505b8181101561130c575f8155600101612065565b815167ffffffffffffffff81111561209257612092611e02565b6120a6816120a08454611fe8565b84612034565b602080601f8311600181146120d9575f84156120c25750858301515b5f19600386901b1c1916600185901b17855561130a565b5f85815260208120601f198616915b82811015612107578886015182559484019460019091019084016120e8565b508582101561212457878501515f19600388901b60f8161c191681555b5050505050600190811b01905550565b5f8351612145818460208801611c43565b835190830190612159818360208801611c43565b01949350505050565b6001600160a01b03858116825284166020820152604081018390526080606082018190525f9061086190830184611c65565b5f602082840312156121a4575f80fd5b8151610c9c81611bfc565b634e487b7160e01b5f52601160045260245ffd5b5f600182016121d4576121d46121af565b5060010190565b8181038181111561075f5761075f6121af565b634e487b7160e01b5f52603160045260245ffdfea2646970667358221220e7c52b1863ab64ec3f19184c10b7326f3b6047fa40e54c8b0a4015c725e0b28364736f6c63430008180033","linkReferences":{}},"methodIdentifiers":{"BURNER_ROLE()":"282c51f3","DEFAULT_ADMIN_ROLE()":"a217fddf","MINTER_ROLE()":"d5391393","approve(address,uint256)":"095ea7b3","balanceOf(address)":"70a08231","burnTicket(uint256,uint256,address)":"ca569d6f","getApproved(uint256)":"081812fc","getRoleAdmin(bytes32)":"248a9ca3","grantRole(bytes32,address)":"2f2ff15d","hasRole(bytes32,address)":"91d14854","isApprovedForAll(address,address)":"e985e9c5","mint(address,uint256,uint64,address)":"0b9f7cac","mintPriceWei()":"cb2c9722","name()":"06fdde03","operatorOf(uint256)":"f41875e1","ownerOf(uint256)":"6352211e","purchaseTicket(uint256,uint64,address)":"0bacb1ca","renounceRole(bytes32,address)":"36568abe","revokeRole(bytes32,address)":"d547741f","routeMintPriceWei(uint256)":"74c059b8","routeOf(uint256)":"e8fc4d58","safeTransferFrom(address,address,uint256)":"42842e0e","safeTransferFrom(address,address,uint256,bytes)":"b88d4fde","setApprovalForAll(address,bool)":"a22cb465","setBaseURI(string)":"55f804b3","setMintPriceWei(uint256)":"15ebd123","setRouteMintPrice(uint256,uint256)":"3cf25549","supportsInterface(bytes4)":"01ffc9a7","symbol()":"95d89b41","tokenByIndex(uint256)":"4f6ccce7","tokenOfOwnerByIndex(address,uint256)":"2f745c59","tokenURI(uint256)":"c87b56dd","totalBurned()":"d89135cd","totalMinted()":"a2309ff8","totalSupply()":"18160ddd","transferFrom(address,address,uint256)":"23b872dd","treasury()":"61d027b3","validUntil(uint256)":"059c95d4"},"id":37}